:1004B20002650000046100000000016900016000A3
:0604C200C100026700000A
:10065900438E805389F0758A20758CD1C28DD28CD6
:05066900D2A9D2AF226E
:10058C00E4F51FF51EF51DF51CE52775F00AA4FD15
:10059C00ACF0E52675F064A42DFFE5F03CFE7C0084
:1005AC00EF2528FDEC3EFCE41201B98F1F8E1E8D49
:1005BC001D8C1CE4FBFA79FA7843120117E4FBFA60
:0705CC007980784312000E54
:0105D3002205
:03000B000205D417
:1005D400C0E0C0F0C083C082C0D075D000C000C0ED
:1005E40001C002C003C004C005C006C00712061A39
:1005F4000566E56670020565120529D007D006D0A8
:1006040005D004D003D002D001D000D0D0D082D005
:0606140083D0F0D0E032BB
:1002AE0012065912058C1201F28FB0E509B407152A
:1002BE00E508B40210E560700C75600174252569BF
:1002CE00F8E4F60569E509B40B15E508B40210E586
:1002DE0060700C75600174252569F876010569E575
:1002EE0009B40F15E508B40210E560700C756001D5
:1002FE0074252569F876020569E509B41315E50834
:10030E00B40210E560700C75600174252569F876ED
:10031E00030569E509B40615E508B40210E5607039
:10032E000C75600174252569F876040569E509B434
:10033E000A15E508B40210E560700C7560017425AD
:10034E002569F876050569E509B40E15E508B402C8
:10035E0010E560700C75600174252569F876060548
:10036E0069E509B41215E508B40210E560700C7564
:10037E00600174252569F876070569E509B4051548
:10038E00E508B40210E560700C75600174252569EE
:10039E00F876080569E509B40915E508B40210E513
:1003AE0060700C75600174252569F876090569E59C
:1003BE0009B40D0EE508B40209752D00752E0075F1
:1003CE002F25E509B4111AE508B40215752D00752F
:1003DE002E00752F29E5262420F52A85272B852822
:1003EE002CE509B40407E508B40202C200E590B496
:1003FE000F03E4F560E52775F00AA4FDACF0E526E1
:10040E0075F064A42DFFE5F03CFE7C00EF2528F589
:08041E0068EC3EF5670202B133
:1004C800202B343F065B4F666D7D077F6F777C3945
:1004D8005E79710040761E7038375C733E783D67F0
:1004E80050376EBF86DBCFE6EDFD87FFEF46043061
:1004F8000102040804211000000004250000000087
:0E050800042910000000032D000021015F00F7
:10061A00E4F5A043A08053A07FAB2DAA2EA92F8575
:10062A005F82F5831202732434F8E6F4F58043A05E
:10063A004053A0BF7430255FF8E6F5A043A080536D
:0F064A00A07F055FE55FC394044003E4F55F22E2
:10051600100A0405060708090A0B0C0D0E0F101128
:020526001213AE
:1005290075900FE590F4540F6053E508C394FF509C
:10053900020508209303E4F51A209203751A012095
:100549009103751A02209003751A037590F020948F
:1005590003E4F51B209503751B01209603751B0207
:10056900209703751B03C37403951A25E025E0241E
:100579000AF8C37403951B28F8E6F50922E4F5087F
:03058900F509224F
:10000E00EC4D6011E8497017ED33EC3304600DE4EC
:10001E00FCFFFEFD22E933E8330470F802025E12A3
:10002E00022958046009E4CC2481500628500902A4
:10003E000268284003020265C0E0EB4A7044B980B2
:10004E0006D0E0FB020254EF4E701CBD8008EBFFA1
:10005E00EAFEE9FD80EBE98DF0A4FEE5F00200F783
:10006E00E9CDF9EAFEEBFFEF89F0A4FCE5F0CE89CD
:10007E00F0A42EFFE435F0CD89F0A42DFEE435F08A
:10008E008067EF4E7005BD80D780C3EF8BF0A4ACB8
:10009E00F0EE8BF0A42CFCE435F0F8EF8AF0A42CF3
:1000AE00E5F038FCE433CB8DF0A42CFCE5F03BF806
:1000BE00EE8AF0A42CFCE5F038F8E433CF89F0A4F6
:1000CE002CFCE5F038CF3400CE89F0A42FFFE5F0FC
:1000DE003EFEE433C98DF0A42EFEE5F039CD8AF054
:1000EE00A42FFFE5F03EFEE43DFD33D0E0FB5007CC
:1000FE000BBB000F020268EC2CFCEF33FFEE33FE5D
:06010E00ED33FD0202408A
:10011400020268EC5D046005E85904700302025EA3
:10012400120229580460F6EC4860F2EC7004FDFEFB
:10013400FF22C860DB2481C85009C39860025006BE
:100144000202659850CAF582E9294B4A7005AB82D0
:1001540002025475F0007C1A7880C3EF9BEE9AED8E
:1001640099400DC3EF9BFFEE9AFEED99FDE842F036
:10017400DC23ACF0D0E0FFD0E0FED0E0FDAB822089
:10018400E7101BEB60BAEC2CFCEF33FFEE33FEED13
:1001940033FD020240E803F830E705C0F075F000D3
:1001A400EF2FFFEE33FEED33FD40B830E7C280AAF7
:1001B40075F020800E75F010800575F0087D007EC6
:1001C400007F003392D530D5031202A0EC334010E7
:1001D400EF33FFEE33FEED33FDEC33FCD5F0ED22CF
:0E01E400E5F0247EA2D513CC92E7CDCEFF220B
:1001F200EDD2E7CD33EC3392D524814006E4FFFE05
:10020200FDFC22FCE4CFCECDCC24E0501174FF8063
:10021200EDC3CC13CCCD13CDCE13CECF13CF047000
:07022200F030D5DE0202A05E
:10022900E9D2E7C933E833F892D5EDD2E7CD33EC1B
:0702390033FC5002B2D52294
:10024000EC30E7100FBF000C0EBE00080DBD00041F
:100250000BEB6014A2D5EB13FCED92E7FD2274FFCB
:10026000FCFDFEFF22E480F8A2D574FF13FC7D8024
:03027000E480EF38
:03000000020426D1
:0C042600787FE4F6D8FD75816902046D52
:10027300BB010CE58229F582E5833AF583E0225040
:1002830006E92582F8E622BBFE06E92582F8E2228A
:0D029300E58229F582E5833AF583E49322A4
:0E02A000C3E49FFFE49EFEE49DFDE49CFC226F
:100432000202AEE493A3F8E493A34003F68001F230
:1004420008DFF48029E493A3F85407240CC8C333CB
:10045200C4540F4420C8834004F456800146F6DF9A
:10046200E4800B01020408102040809004B2E47E74
:10047200019360BCA3FF543F30E509541FFEE4938F
:10048200A360010ECF54C025E060A840B8E493A356
:10049200FAE493A3F8E493A3C8C582C8CAC583CA81
:1004A200F0A3C8C582C8CAC583CADFE9DEE780BE39
:0105280000D2
:00000001FF
