:1008E500039F250D9949411F010911C16385617157
:0608FD00010804010900DE
:1008D200E4F598758901758C3C758AB0D2A9D2AFBE
:0308E200D28C2293
:1008B800E5089008E593F5993099FDC2999008E507
:0A08C800E493F5993099FDC29922DE
:0808F5001208D21208B880FEBF
:03000B0002088C5C
:10088C00C0E0C083C082C0D00509E509C3940A400A
:10089C00120508E508D39409400375080075090092
:0C08AC001208B8D0D0D082D083D0E03247
:03000000020800F3
:0C080000787FE4F6D8FD758109020847F6
:10080C000208F5E493A3F8E493A34003F68001F205
:10081C0008DFF48029E493A3F85407240CC8C333ED
:10082C00C4540F4420C8834004F456800146F6DFBC
:10083C00E4800B01020408102040809008FDE47E47
:10084C00019360BCA3FF543F30E509541FFEE493B1
:10085C00A360010ECF54C025E060A840B8E493A378
:10086C00FAE493A3F8E493A3C8C582C8CAC583CAA3
:10087C00F0A3C8C582C8CAC583CADFE9DEE780BE5B
:0109030000F3
:00000001FF
