:10052300438E805389F0758A20758CD1C28DD28C0D
:05053300D2A9D2AF22A5
:03000B000204B13B
:1004B100C0E0C0F0C083C082C0D075D000C000C011
:1004C10001C002C003C004C005C006C00712043643
:1004D100D007D006D005D004D003D002D001D0007F
:0B04E100D0D0D082D083D0F0D0E03229
:10050A00D2B3D2B4D2B57590FFC2B4D2B420B5FD7D
:08051A00C2B30000AF90D2B49F
:0105220022B6
:1004EC00AC07E41202167BC97AC87948784012012D
:0D04FC0006E4FBFAF9783F12001512024ADF
:0105090022CF
:1004750012052312050A1204ECAB07AA067C007DBF
:100485000A1202F88D0F7C007D0AAF03AE0212023C
:10049500F87C007D0A1202F88D0E7C007D64AF03A6
:0C04A500AE021202F8EF2420F50D80C713
:1003E700202B1B3F065B4F666D7D077F6F777C3940
:1003F7005E79710040761E7038375C733E783D67D2
:1004070050376EBF86DBCFE6EDFD87FFEF4604175B
:1004170001020408040810000000040C100000008A
:0E042700041010000000031400000C01460039
:10043600E4F5A043A08053A07FAB14AA15A91685A6
:100446004682F5831202CB241BF8E6F4F58043A01E
:100456004053A0BF74172546F8E6F5A043A0805385
:0F046600A07F0546E546C394044003E4F5462213
:10000E000202B6E86480F8E933E83360110460F068
:10001E00ED33EC337009E8FCE9FDEAFEEBFF220458
:10002E0060DED3EB9FEA9EE99DE8C2E78CF0C2F753
:10003E0095F0400CE8CCF8E9CDF9EACEFAEBCFFB1F
:10004E0012028185D0F05804700320D5B3E80470F5
:10005E00075002B2D50202C092D5EC0460F7E4CC90
:10006E00C0E0C398F8603B94186008400DD0E0FBE8
:10007E00020298E4FBFAC9FC8028E830E406E4C9E1
:10008E00FBE4CAFCE830E305E4C9CACBFCE854073C
:10009E006010F8C3E913F9EA13FAEB13FBEC13FC47
:1000AE00D8F130F52FC3E49CFCEF9BFFEE9AFEEDEA
:1000BE0099FDD0E0FBEF4E4D4C701222DB03020295
:1000CE00BDEC2CFCEF33FFEE33FEED33FDED30E7F0
:1000DE00EB020298EF2BFFEE3AFEED39FDD0E0FB7E
:1000EE0050130BBB00030202C0ED13FDEE13FEEF27
:0800FE0013FFEC13FC02029851
:10010600EC4D6011E8497017ED33EC3304600DE4F3
:10011600FCFFFEFD22E933E8330470F80202B61252
:10012600028158046009E4CC248150062850090253
:1001360002C02840030202BDC0E0EB4A7044B98009
:1001460006D0E0FB0202ACEF4E701CBD8008EBFF50
:10015600EAFEE9FD80EBE98DF0A4FEE5F00201EF91
:10016600E9CDF9EAFEEBFFEF89F0A4FCE5F0CE89D4
:10017600F0A42EFFE435F0CD89F0A42DFEE435F091
:100186008067EF4E7005BD80D780C3EF8BF0A4ACBF
:10019600F0EE8BF0A42CFCE435F0F8EF8AF0A42CFA
:1001A600E5F038FCE433CB8DF0A42CFCE5F03BF80D
:1001B600EE8AF0A42CFCE5F038F8E433CF89F0A4FD
:1001C6002CFCE5F038CF3400CE89F0A42FFFE5F003
:1001D6003EFEE433C98DF0A42EFEE5F039CD8AF05B
:1001E600A42FFFE5F03EFEE43DFD33D0E0FB5007D3
:1001F6000BBB000F0202C0EC2CFCEF33FFEE33FE0C
:06020600ED33FD02029839
:10020C0075F020800E75F010800575F0087D007E6D
:10021C00007F003392D530D50312034DEC334010E0
:10022C00EF33FFEE33FEED33FDEC33FCD5F0ED2276
:0E023C00E5F0247EA2D513CC92E7CDCEFF22B2
:10024A00EDD2E7CD33EC3392D524814006E4FFFEAC
:10025A00FDFC22FCE4CFCECDCC24E0501174FF800B
:10026A00EDC3CC13CCCD13CDCE13CECF13CF0470A8
:07027A00F030D5DE02034D58
:10028100E9D2E7C933E833F892D5EDD2E7CD33ECC3
:0702910033FC5002B2D5223C
:10029800EC30E7100FBF000C0EBE00080DBD0004C7
:1002A8000BEB6014A2D5EB13FCED92E7FD2274FF73
:1002B800FCFDFEFF22E480F8A2D574FF13FC7D80CC
:0302C800E480EFE0
:0300000002035B9D
:0C035B00787FE4F6D8FD7581470203A20C
:1002CB00BB010CE58229F582E5833AF583E02250E8
:1002DB0006E92582F8E622BBFE06E92582F8E22232
:0D02EB00E58229F582E5833AF583E493224C
:1002F800BC000BBE0029EF8DF084FFADF022E4CCEA
:10030800F875F008EF2FFFEE33FEEC33FCEE9DECB2
:10031800984005FCEE9DFE0FD5F0E9E4CEFD22EDF8
:10032800F8F5F0EE8420D21CFEADF075F008EF2F42
:10033800FFED33FD4007985006D5F0F222C398FD33
:050348000FD5F0EA22D0
:0E034D00C3E49FFFE49EFEE49DFDE49CFC22C1
:10036700020475E493A3F8E493A34003F68001F233
:1003770008DFF48029E493A3F85407240CC8C33397
:10038700C4540F4420C8834004F456800146F6DF66
:10039700E4800B01020408102040809003E7E47E0C
:1003A700019360BCA3FF543F30E509541FFEE4935B
:1003B700A360010ECF54C025E060A840B8E493A322
:1003C700FAE493A3F8E493A3C8C582C8CAC583CA4D
:1003D700F0A3C8C582C8CAC583CADFE9DEE780BE05
:0104350000C6
:00000001FF
