:10044000438E805389F0758A20758CD1C28DD28CF1
:05045000D2A9D2AF2289
:0B047D00EF1FAC0670011E4C70F62251
:03000B000203B934
:1003B900C0E0C0F0C083C082C0D075D000C000C00A
:1003C90001C002C003C004C005C006C00712033E35
:1003D900D007D006D005D004D003D002D001D00078
:0B03E900D0D0D082D083D0F0D0E03222
:10045500AC07E412011E7BFB7AFA79FA783F1200A9
:040465000E12015220
:010469002270
:10041B00E4FFFED294C293D295C29400FDD29330E6
:10042B009503430701C293EF25E0FFEE33FE0DBDAD
:04043B0008EBD29464
:01043F00229A
:1003F400E4FDD295FBFAED25E0FD3095010DD29395
:10040400C2937F0A7E0012047D0BBB00010AEB64D9
:06041400084A70E2AF058A
:01041A0022BF
:10046A00C2941203F4AD07D2947F147E0012047D65
:02047A00AF05CC
:01047C00225D
:10037D0012044012046A120455AB07AA067C007DD4
:10038D000A1202008D0F7C007D0AAF03AE0212022D
:10039D00007C007D0A1202008D0E7C007D64AF038F
:0C03AD00AE02120200EF2420F50D80C704
:1002EF00202B1B3F065B4F666D7D077F6F777C3939
:1002FF005E79710040761E7038375C733E783D67CB
:10030F0050376EBF86DBCFE6EDFD87FFEF46041754
:10031F0001020408040810000000040C1000000083
:0E032F00041010000000031400000C01460032
:10033E00E4F5A043A08053A07FAB14AA15A916859F
:10034E004682F5831201D3241BF8E6F4F58043A010
:10035E004053A0BF74172546F8E6F5A043A080537E
:0F036E00A07F0546E546C394044003E4F546220C
:10000E00EC4D6011E8497017ED33EC3304600DE4EC
:10001E00FCFFFEFD22E933E8330470F80201BE1244
:10002E00018958046009E4CC248150062850090245
:10003E0001C82840030201C5C0E0EB4A7044B980F4
:10004E0006D0E0FB0201B4EF4E701CBD8008EBFF42
:10005E00EAFEE9FD80EBE98DF0A4FEE5F00200F783
:10006E00E9CDF9EAFEEBFFEF89F0A4FCE5F0CE89CD
:10007E00F0A42EFFE435F0CD89F0A42DFEE435F08A
:10008E008067EF4E7005BD80D780C3EF8BF0A4ACB8
:10009E00F0EE8BF0A42CFCE435F0F8EF8AF0A42CF3
:1000AE00E5F038FCE433CB8DF0A42CFCE5F03BF806
:1000BE00EE8AF0A42CFCE5F038F8E433CF89F0A4F6
:1000CE002CFCE5F038CF3400CE89F0A42FFFE5F0FC
:1000DE003EFEE433C98DF0A42EFEE5F039CD8AF054
:1000EE00A42FFFE5F03EFEE43DFD33D0E0FB5007CC
:1000FE000BBB000F0201C8EC2CFCEF33FFEE33FEFE
:06010E00ED33FD0201A02B
:1001140075F020800E75F010800575F0087D007E66
:10012400007F003392D530D503120255EC334010D2
:10013400EF33FFEE33FEED33FDEC33FCD5F0ED226F
:0E014400E5F0247EA2D513CC92E7CDCEFF22AB
:10015200EDD2E7CD33EC3392D524814006E4FFFEA5
:10016200FDFC22FCE4CFCECDCC24E0501174FF8004
:10017200EDC3CC13CCCD13CDCE13CECF13CF0470A1
:07018200F030D5DE0202554A
:10018900E9D2E7C933E833F892D5EDD2E7CD33ECBC
:0701990033FC5002B2D52235
:1001A000EC30E7100FBF000C0EBE00080DBD0004C0
:1001B0000BEB6014A2D5EB13FCED92E7FD2274FF6C
:1001C000FCFDFEFF22E480F8A2D574FF13FC7D80C5
:0301D000E480EFD9
:0300000002026396
:0C026300787FE4F6D8FD7581470202AAFE
:1001D300BB010CE58229F582E5833AF583E02250E1
:1001E30006E92582F8E622BBFE06E92582F8E2222B
:0D01F300E58229F582E5833AF583E4932245
:10020000BC000BBE0029EF8DF084FFADF022E4CCE2
:10021000F875F008EF2FFFEE33FEEC33FCEE9DECAB
:10022000984005FCEE9DFE0FD5F0E9E4CEFD22EDF1
:10023000F8F5F0EE8420D21CFEADF075F008EF2F3B
:10024000FFED33FD4007985006D5F0F222C398FD2C
:050250000FD5F0EA22C9
:0E025500C3E49FFFE49EFEE49DFDE49CFC22BA
:10026F0002037DE493A3F8E493A34003F68001F225
:10027F0008DFF48029E493A3F85407240CC8C33390
:10028F00C4540F4420C8834004F456800146F6DF5F
:10029F00E4800B01020408102040809002EFE47EFE
:1002AF00019360BCA3FF543F30E509541FFEE49354
:1002BF00A360010ECF54C025E060A840B8E493A31B
:1002CF00FAE493A3F8E493A3C8C582C8CAC583CA46
:1002DF00F0A3C8C582C8CAC583CADFE9DEE780BEFE
:01033D0000BF
:00000001FF
