:1004790002650000046100000000016900016000DC
:06048900C1000267000043
:10064C00438E805389F0758A20758CD1C28DD28CE3
:05065C00D2A9D2AF227B
:10055300E4F51FF51EF51DF51CE52775F00AA4FD4E
:10056300ACF0E52675F064A42DFFE5F03CFE7C00BD
:10057300EF2528FDEC3EFCE41201B98F1F8E1E8D82
:100583001D8C1C7B6F7A1279837840120117E4FB70
:08059300FA7980784412000E91
:01059B00223D
:10062100C2B1EF7802C333CE33CED8F9FFE4FDC2B5
:10063100B2EE30E303D38001C392B0D2B2EF25E032
:0A064100FFEE33FE0DBD0CE7D2B151
:01064B00228C
:03000B0002059C4F
:10059C00C0E0C0F0C083C082C0D075D000C000C025
:1005AC0001C002C003C004C005C006C0071205E2AA
:1005BC000566E566700205651204F0D007D006D01A
:1005CC0005D004D003D002D001D000D0D0D082D03E
:0605DC0083D0F0D0E032F4
:1002770012064CE509B40715E508B40210E56070ED
:100287000C75600174252569F8E4F60569E509B47C
:100297000B15E508B40210E560700C756001742554
:1002A7002569F876010569E509B40F15E508B40273
:1002B70010E560700C75600174252569F8760205F4
:1002C70069E509B41315E508B40210E560700C750B
:1002D700600174252569F876030569E509B40615F3
:1002E700E508B40210E560700C7560017425256996
:1002F700F876040569E509B40A15E508B40210E5BE
:1003070060700C75600174252569F876050569E547
:1003170009B40E15E508B40210E560700C756001AC
:1003270074252569F876060569E509B41215E50807
:10033700B40210E560700C75600174252569F876C4
:10034700070569E509B40515E508B40210E560700D
:100357000C75600174252569F876080569E509B407
:100367000915E508B40210E560700C756001742585
:100377002569F876090569E509B40D0EE508B402A3
:1003870009752D00752E00752F25E509B4111AE59D
:1003970008B40215752D00752E00752F29E5262442
:1003A70020F52A85272B85282CE509B40407E508BD
:1003B700B40202C200E590B40F03E4F560E52775C7
:1003C700F00AA4FDACF0E52675F064A42DFFE5F076
:1003D7003CFE7C00EF2528F568EC3EF567AF68FE2C
:0603E70012062102027A59
:10048F00202B343F065B4F666D7D077F6F777C397E
:10049F005E79710040761E7038375C733E783D6729
:1004AF0050376EBF86DBCFE6EDFD87FFEF4604309A
:1004BF0001020408042110000000042500000000C0
:0E04CF00042910000000032D000021015F0031
:1005E200E4F5A043A08053A07FAB2DAA2EA92F85AE
:1005F2005F82F58312023C2434F8E6F4F58043A0CE
:100602004053A0BF7430255FF8E6F5A043A08053A5
:0F061200A07F055FE55FC394044003E4F55F221A
:1004DD00100A0405060708090A0B0C0D0E0F101162
:0204ED001213E8
:1004F00075900FE590F4540F6053E508C394FF50D6
:10050000020508209303E4F51A209203751A0120CE
:100510009103751A02209003751A037590F02094C8
:1005200003E4F51B209503751B01209603751B0240
:10053000209703751B03C37403951A25E025E02457
:100540000AF8C37403951B28F8E6F50922E4F508B8
:03055000F5092288
:10000E00EC4D6011E8497017ED33EC3304600DE4EC
:10001E00FCFFFEFD22E933E8330470F802022712DA
:10002E0001F258046009E4CC2481500628500902DC
:10003E00023128400302022EC0E0EB4A7044B98020
:10004E0006D0E0FB02021DEF4E701CBD8008EBFFD8
:10005E00EAFEE9FD80EBE98DF0A4FEE5F00200F783
:10006E00E9CDF9EAFEEBFFEF89F0A4FCE5F0CE89CD
:10007E00F0A42EFFE435F0CD89F0A42DFEE435F08A
:10008E008067EF4E7005BD80D780C3EF8BF0A4ACB8
:10009E00F0EE8BF0A42CFCE435F0F8EF8AF0A42CF3
:1000AE00E5F038FCE433CB8DF0A42CFCE5F03BF806
:1000BE00EE8AF0A42CFCE5F038F8E433CF89F0A4F6
:1000CE002CFCE5F038CF3400CE89F0A42FFFE5F0FC
:1000DE003EFEE433C98DF0A42EFEE5F039CD8AF054
:1000EE00A42FFFE5F03EFEE43DFD33D0E0FB5007CC
:1000FE000BBB000F020231EC2CFCEF33FFEE33FE94
:06010E00ED33FD020209C1
:10011400020231EC5D046005E85904700302022711
:100124001201F2580460F6EC4860F2EC7004FDFE33
:10013400FF22C860DB2481C85009C39860025006BE
:1001440002022E9850CAF582E9294B4A7005AB8207
:1001540002021D75F0007C1A7880C3EF9BEE9AEDC5
:1001640099400DC3EF9BFFEE9AFEED99FDE842F036
:10017400DC23ACF0D0E0FFD0E0FED0E0FDAB822089
:10018400E7101BEB60BAEC2CFCEF33FFEE33FEED13
:1001940033FD020209E803F830E705C0F075F0000A
:1001A400EF2FFFEE33FEED33FD40B830E7C280AAF7
:1001B40075F020800E75F010800575F0087D007EC6
:1001C400007F003392D530D503120269EC3340101E
:1001D400EF33FFEE33FEED33FDEC33FCD5F0ED22CF
:0E01E400E5F0247EA2D513CC92E7CDCEFF220B
:1001F200E9D2E7C933E833F892D5EDD2E7CD33EC53
:0702020033FC5002B2D522CB
:10020900EC30E7100FBF000C0EBE00080DBD000456
:100219000BEB6014A2D5EB13FCED92E7FD2274FF02
:10022900FCFDFEFF22E480F8A2D574FF13FC7D805B
:03023900E480EF6F
:030000000203ED0B
:0C03ED00787FE4F6D8FD758169020434C5
:10023C00BB010CE58229F582E5833AF583E0225077
:10024C0006E92582F8E622BBFE06E92582F8E222C1
:0D025C00E58229F582E5833AF583E49322DB
:0E026900C3E49FFFE49EFEE49DFDE49CFC22A6
:1003F900020277E493A3F8E493A34003F68001F2A1
:1004090008DFF48029E493A3F85407240CC8C33304
:10041900C4540F4420C8834004F456800146F6DFD3
:10042900E4800B0102040810204080900479E47EE6
:10043900019360BCA3FF543F30E509541FFEE493C8
:10044900A360010ECF54C025E060A840B8E493A38F
:10045900FAE493A3F8E493A3C8C582C8CAC583CABA
:10046900F0A3C8C582C8CAC583CADFE9DEE780BE72
:0104EF00000C
:00000001FF
