:07009A0002440000014300D5
:1001C900438E805389F0758A20758CD1C28DD28C6B
:0501D900D2A9D2AF2203
:03000B000200E808
:1000E800C0E0C0F0C083C082C0D075D000C000C0DE
:1000F80001C002C003C004C005C006C00712012B1E
:100108000545E54570020544D007D006D005D00462
:10011800D003D002D001D000D0D0D082D083D0F08C
:03012800D0E032F2
:10016A001201C9C3E5459464E544940040F5E4F5F9
:10017A0044F545E50B94104003754301E50BD39410
:10018A00085003E4F543E5437004050B80D5150BCD
:02019A0080D112
:1000A100202B173F065B4F666D7D077F6F777C398D
:1000B1005E79710040761E7038375C733E783D671B
:1000C10050376EBF86DBCFE6EDFD87FFEF460413A9
:1000D10001020408080800030208000000000310E0
:0600E100000008014200CE
:10012B00E4F5A043B08053B07FAB10AA11A91285A0
:10013B004282F58312019C2417F8E6F4F58043B054
:10014B004053B0BF74132542F8E6F5A043B080537B
:0F015B00B07F0542E542C394044003E4F542221D
:0300000002000EED
:0C000E00787FE4F6D8FD758145020055AE
:10019C00BB010CE58229F582E5833AF583E0225018
:1001AC0006E92582F8E622BBFE06E92582F8E22262
:0D01BC00E58229F582E5833AF583E493227C
:10001A0002016AE493A3F8E493A34003F68001F291
:10002A0008DFF48029E493A3F85407240CC8C333E7
:10003A00C4540F4420C8834004F456800146F6DFB6
:10004A00E4800B010204081020408090009AE47EAC
:10005A00019360BCA3FF543F30E509541FFEE493AB
:10006A00A360010ECF54C025E060A840B8E493A372
:10007A00FAE493A3F8E493A3C8C582C8CAC583CA9D
:10008A00F0A3C8C582C8CAC583CADFE9DEE780BE55
:0100E7000018
:00000001FF
