:0F01EF00025E0000016000015C00C100015D00C4
:10036E00438E805389F0758A20758CD1C28DD28CC4
:05037E00D2A9D2AF225C
:03000B000202BC32
:1002BC00C0E0C0F0C083C082C0D075D000C000C008
:1002CC0001C002C003C004C005C006C0071203026F
:1002DC00120259055FE55F7002055ED007D006D0AB
:1002EC0005D004D003D002D001D000D0D0D082D021
:0602FC0083D0F0D0E032D7
:10000E0012036E300012D3E55F9464E55E940040F7
:10001E0007E4F55EF55F0528E509B40715E508B4B4
:10002E000210E55C700C755C0174252560F8E4F631
:10003E000560E509B40B15E508B40210E55C700C1B
:10004E00755C0174252560F876010560E509B40F2D
:10005E0015E508B40210E55C700C755C017425257D
:10006E0060F876020560E509B41315E508B40210D0
:10007E00E55C700C755C0174252560F876030560EF
:10008E00E509B40615E508B40210E55C700C755C64
:10009E000174252560F876040560E509B40A15E5B6
:1000AE0008B40210E55C700C755C0174252560F8CF
:1000BE0076050560E509B40E15E508B40210E55C99
:1000CE00700C755C0174252560F876060560E509EF
:1000DE00B41215E508B40210E55C700C755C017481
:1000EE00252560F876070560E509B40515E508B421
:1000FE000210E55C700C755C0174252560F87608BD
:10010E000560E509B40915E508B40210E55C700C4C
:10011E00755C0174252560F876090560E509B40D56
:10012E000EE508B40209752900752A00752B25E520
:10013E0009B41107E508B40202D200E509B40407B8
:10014E00E508B40202C200E590640F6003020011DC
:05015E00F55C02001138
:1001FE00202B303F065B4F666D7D077F6F777C3916
:10020E005E79710040761E7038375C733E783D67BC
:10021E0050376EBF86DBCFE6EDFD87FFEF46042C31
:10022E000102040804210000000004251010101023
:08023E000329000021015B000F
:10030200E4F5A043B08053B07FAB29AA2AA92B857C
:100312005B82F5831203412430F8E6F4F58043B0A2
:100322004053B0BF742C255BF8E6F5A043B0805370
:0F033200B07F055BE55BC394044003E4F55B22F9
:10024600100A0405060708090A0B0C0D0E0F1011FB
:02025600121381
:1002590075900FE590F4540F6053E508C394FF506F
:10026900020508209303E4F51A209203751A012068
:100279009103751A02209003751A037590F0209462
:1002890003E4F51B209503751B01209603751B02DA
:10029900209703751B03C37403951A25E025E024F1
:1002A9000AF8C37403951B28F8E6F50922E4F50852
:0302B900F5092222
:0300000002016397
:0C016300787FE4F6D8FD7581600201AAE7
:10034100BB010CE58229F582E5833AF583E0225071
:1003510006E92582F8E622BBFE06E92582F8E222BB
:0D036100E58229F582E5833AF583E49322D5
:10016F0002000EE493A3F8E493A34003F68001F298
:10017F0008DFF48029E493A3F85407240CC8C33391
:10018F00C4540F4420C8834004F456800146F6DF60
:10019F00E4800B01020408102040809001EFE47E00
:1001AF00019360BCA3FF543F30E509541FFEE49355
:1001BF00A360010ECF54C025E060A840B8E493A31C
:1001CF00FAE493A3F8E493A3C8C582C8CAC583CA47
:1001DF00F0A3C8C582C8CAC583CADFE9DEE780BEFF
:0102580000A5
:00000001FF
